:1000000012C019C018C017C016C015C014C013C044
:1000100012C011C010C00FC00EC00DC00CC00BC06C
:100020000AC009C008C011241FBECFE5D4E0DEBF5E
:10003000CDBFA8D0AAC0E4CFC098C19A089581309E
:1000400049F028F0823039F0833061F407C088B37A
:100050008C7F06C0F1CFC198C09A089588B38360A1
:1000600088BB089500C082B3857482BBAB9881B30E
:10007000857481BBA398C0E08C2FE1DF8FE39CE9FE
:100080000197F1F700C00000CF5FC430A8F3F3CFB1
:1000900092B3957492BBAB98813039F018F08230EE
:1000A00059F407C082B3826102C082B3806A82BB06
:1000B0000895AB9A939A0895D6DF81B38A6B81BB7A
:1000C000A39A87B3836087BB089580E0B8DF2FEFE2
:1000D00085EA9EE0215080409040E1F700C000009A
:1000E000ABDF2FEF85EA9EE0215080409040E1F7A2
:1000F00000C0000082E0A3DF2FEF85EA9EE02150E0
:1001000080409040E1F700C0000083E098DF2FEFCF
:100110008FE097E2215080409040E1F700C000005E
:1001200080E08DDF80E0B4DF2FEF85EA9EE0215094
:1001300080409040E1F700C000007EDF81E0A8DF52
:100140002FEF85EA9EE0215080409040E1F700C00B
:10015000000082E074DF82E09BDF2FEF85EA9EE003
:10016000215080409040E1F700C0000083E067DF4D
:100170002FEF85EA9EE0215080409040E1F700C0DB
:0E018000000008959ADFA1DFFECFF894FFCFB4
:00000001FF
