:1000000012C021C020C01FC01EC01DC01CC01BC00C
:100010001AC019C018C017C016C015C014C013C02C
:1000200072C011C010C011241FBECFE5D4E0DEBFE6
:10003000CDBF10E0A0E6B0E001C01D92A136B1072F
:10004000E1F799D0E7C0DCCFC098C19A089581301C
:1000500049F028F0823039F0833061F407C088B36A
:100060008C7F06C0F1CFC198C09A089588B3836091
:1000700088BB089500C082B3857482BBAB9881B3FE
:10008000857481BBA398C0E08C2FE1DF8FE39CE9EE
:100090000197F1F700C00000CF5FC430A8F3F3CFA1
:1000A00092B3957492BBAB98813039F018F08230DE
:1000B00051F407C082B3826102C082B3806A82BBFE
:1000C0000895AB9A939A089543988130910531F041
:1000D0008230910551F0892B29F008953A9839988A
:1000E000389A06C03A98399802C03A98399A38989E
:1000F000439A08954798439A419A409880B78860F8
:1001000080BF379808951F920F920FB60F92112457
:100110002F933F934F935F936F937F938F939F930F
:10012000AF93BF93EF93FF9380916000823018F0FC
:100130001092600003C08F5F809360008091600028
:1001400090E0C2DFFF91EF91BF91AF919F918F91AE
:100150007F916F915F914F913F912F910F900FBEC3
:100160000F901F90189581B38A6B81BBA39A87B3B8
:10017000836087BB0895F7DFBDDF1092600080E0E9
:1001800090E0A2DF80E08CDF5FDF2FEF83EC99E06F
:10019000215080409040E1F700C0000080E057DF30
:1001A0002FEF83EC99E0215080409040E1F700C0B0
:1001B00000004ADF2FEF83EC99E02150804090400F
:1001C000E1F700C0000080E042DF2FEF83EC99E010
:1001D000215080409040E1F700C0000082E037DF0E
:1001E0002FEF83EC99E0215080409040E1F700C070
:1001F000000080E02CDF78948091600051DF2AE1DC
:100200002A95F1F700C083E04BDF8AE68A95F1F783
:0802100000C0F2CFF894FFCF0B
:00000001FF
